{
  "address": "0x5FbDB2315678afecb367f032d93F642f64180aa3",
  "abi": [
    {
      "inputs": [],
      "name": "Election__AlreadyVoted",
      "type": "error"
    },
    {
      "inputs": [],
      "name": "Election__CandidateAlreadyExists",
      "type": "error"
    },
    {
      "anonymous": false,
      "inputs": [
        {
          "indexed": false,
          "internalType": "string",
          "name": "name",
          "type": "string"
        },
        {
          "indexed": false,
          "internalType": "string",
          "name": "party",
          "type": "string"
        },
        {
          "indexed": false,
          "internalType": "string",
          "name": "state",
          "type": "string"
        }
      ],
      "name": "CandidateAdded",
      "type": "event"
    },
    {
      "anonymous": false,
      "inputs": [
        {
          "indexed": false,
          "internalType": "string",
          "name": "candidateName",
          "type": "string"
        },
        {
          "indexed": false,
          "internalType": "string",
          "name": "candidateParty",
          "type": "string"
        },
        {
          "indexed": true,
          "internalType": "uint256",
          "name": "candidateVoteCount",
          "type": "uint256"
        }
      ],
      "name": "Voted",
      "type": "event"
    },
    {
      "inputs": [
        {
          "internalType": "string",
          "name": "_name",
          "type": "string"
        },
        {
          "internalType": "string",
          "name": "_party",
          "type": "string"
        },
        {
          "internalType": "string",
          "name": "state",
          "type": "string"
        }
      ],
      "name": "addCandidate",
      "outputs": [],
      "stateMutability": "nonpayable",
      "type": "function"
    },
    {
      "inputs": [
        {
          "internalType": "uint256",
          "name": "",
          "type": "uint256"
        }
      ],
      "name": "candidates",
      "outputs": [
        {
          "internalType": "string",
          "name": "name",
          "type": "string"
        },
        {
          "internalType": "string",
          "name": "party",
          "type": "string"
        },
        {
          "internalType": "string",
          "name": "state",
          "type": "string"
        },
        {
          "internalType": "uint256",
          "name": "votes",
          "type": "uint256"
        }
      ],
      "stateMutability": "view",
      "type": "function"
    },
    {
      "inputs": [
        {
          "internalType": "address",
          "name": "",
          "type": "address"
        }
      ],
      "name": "hasVoted",
      "outputs": [
        {
          "internalType": "bool",
          "name": "",
          "type": "bool"
        }
      ],
      "stateMutability": "view",
      "type": "function"
    },
    {
      "inputs": [],
      "name": "numCandidates",
      "outputs": [
        {
          "internalType": "uint256",
          "name": "",
          "type": "uint256"
        }
      ],
      "stateMutability": "view",
      "type": "function"
    },
    {
      "inputs": [
        {
          "internalType": "uint256",
          "name": "_index",
          "type": "uint256"
        }
      ],
      "name": "vote",
      "outputs": [],
      "stateMutability": "nonpayable",
      "type": "function"
    }
  ],
  "transactionHash": "0x5c7885e5b69322f3af58157e1fac7a6368571eca231c9c3a01bd9eb19e8004a7",
  "args": [],
  "numDeployments": 1,
  "solcInputHash": "7808c5497937ff7855e0ed84b3e5d2b5",
  "bytecode": "0x608060405234801561001057600080fd5b50611264806100206000396000f3fe608060405234801561001057600080fd5b50600436106100575760003560e01c80630121b93f1461005c57806309eef43e146100785780633477ee2e146100a85780635216509a146100db578063ad71f8dc146100f9575b600080fd5b610076600480360381019061007191906109f1565b610115565b005b610092600480360381019061008d9190610a7c565b61044e565b60405161009f9190610ac4565b60405180910390f35b6100c260048036038101906100bd91906109f1565b61046e565b6040516100d29493929190610b7e565b60405180910390f35b6100e3610636565b6040516100f09190610bd8565b60405180910390f35b610113600480360381019061010e9190610d28565b61063c565b005b600260003373ffffffffffffffffffffffffffffffffffffffff1673ffffffffffffffffffffffffffffffffffffffff16815260200190815260200160002060009054906101000a900460ff16610419576001806000838152602001908152602001600020600301600082825461018c9190610dfe565b925050819055506001600260003373ffffffffffffffffffffffffffffffffffffffff1673ffffffffffffffffffffffffffffffffffffffff16815260200190815260200160002060006101000a81548160ff02191690831515021790555060006001600083815260200190815260200160002060405180608001604052908160008201805461021b90610e61565b80601f016020809104026020016040519081016040528092919081815260200182805461024790610e61565b80156102945780601f1061026957610100808354040283529160200191610294565b820191906000526020600020905b81548152906001019060200180831161027757829003601f168201915b505050505081526020016001820180546102ad90610e61565b80601f01602080910402602001604051908101604052809291908181526020018280546102d990610e61565b80156103265780601f106102fb57610100808354040283529160200191610326565b820191906000526020600020905b81548152906001019060200180831161030957829003601f168201915b5050505050815260200160028201805461033f90610e61565b80601f016020809104026020016040519081016040528092919081815260200182805461036b90610e61565b80156103b85780601f1061038d576101008083540402835291602001916103b8565b820191906000526020600020905b81548152906001019060200180831161039b57829003601f168201915b50505050508152602001600382015481525050905080606001517f2610aa2b32505d0b372e2695cef7ff28b0127250b30a4dbbb05a86d2fb1e524e8260000151836020015160405161040b929190610e92565b60405180910390a25061044b565b6040517fb5fa7b7500000000000000000000000000000000000000000000000000000000815260040160405180910390fd5b50565b60026020528060005260406000206000915054906101000a900460ff1681565b600160205280600052604060002060009150905080600001805461049190610e61565b80601f01602080910402602001604051908101604052809291908181526020018280546104bd90610e61565b801561050a5780601f106104df5761010080835404028352916020019161050a565b820191906000526020600020905b8154815290600101906020018083116104ed57829003601f168201915b50505050509080600101805461051f90610e61565b80601f016020809104026020016040519081016040528092919081815260200182805461054b90610e61565b80156105985780601f1061056d57610100808354040283529160200191610598565b820191906000526020600020905b81548152906001019060200180831161057b57829003601f168201915b5050505050908060020180546105ad90610e61565b80601f01602080910402602001604051908101604052809291908181526020018280546105d990610e61565b80156106265780601f106105fb57610100808354040283529160200191610626565b820191906000526020600020905b81548152906001019060200180831161060957829003601f168201915b5050505050908060030154905084565b60005481565b60005b6000548110156108c85760006001600083815260200190815260200160002060405180608001604052908160008201805461067990610e61565b80601f01602080910402602001604051908101604052809291908181526020018280546106a590610e61565b80156106f25780601f106106c7576101008083540402835291602001916106f2565b820191906000526020600020905b8154815290600101906020018083116106d557829003601f168201915b5050505050815260200160018201805461070b90610e61565b80601f016020809104026020016040519081016040528092919081815260200182805461073790610e61565b80156107845780601f1061075957610100808354040283529160200191610784565b820191906000526020600020905b81548152906001019060200180831161076757829003601f168201915b5050505050815260200160028201805461079d90610e61565b80601f01602080910402602001604051908101604052809291908181526020018280546107c990610e61565b80156108165780601f106107eb57610100808354040283529160200191610816565b820191906000526020600020905b8154815290600101906020018083116107f957829003601f168201915b5050505050815260200160038201548152505090508460405160200161083c9190610f05565b6040516020818303038152906040528051906020012081600001516040516020016108679190610f05565b60405160208183030381529060405280519060200120036108b4576040517fd7f7b22e00000000000000000000000000000000000000000000000000000000815260040160405180910390fd5b5080806108c090610f1c565b91505061063f565b5060405180608001604052808481526020018381526020018281526020016000815250600160008054815260200190815260200160002060008201518160000190816109149190611110565b50602082015181600101908161092a9190611110565b5060408201518160020190816109409190611110565b506060820151816003015590505060016000808282546109609190610dfe565b925050819055507fa620e116e8168f7281127a47ac04518b6fbd8b07cd150397e6e3e56127ce48cf83838360405161099a939291906111e2565b60405180910390a1505050565b6000604051905090565b600080fd5b600080fd5b6000819050919050565b6109ce816109bb565b81146109d957600080fd5b50565b6000813590506109eb816109c5565b92915050565b600060208284031215610a0757610a066109b1565b5b6000610a15848285016109dc565b91505092915050565b600073ffffffffffffffffffffffffffffffffffffffff82169050919050565b6000610a4982610a1e565b9050919050565b610a5981610a3e565b8114610a6457600080fd5b50565b600081359050610a7681610a50565b92915050565b600060208284031215610a9257610a916109b1565b5b6000610aa084828501610a67565b91505092915050565b60008115159050919050565b610abe81610aa9565b82525050565b6000602082019050610ad96000830184610ab5565b92915050565b600081519050919050565b600082825260208201905092915050565b60005b83811015610b19578082015181840152602081019050610afe565b60008484015250505050565b6000601f19601f8301169050919050565b6000610b4182610adf565b610b4b8185610aea565b9350610b5b818560208601610afb565b610b6481610b25565b840191505092915050565b610b78816109bb565b82525050565b60006080820190508181036000830152610b988187610b36565b90508181036020830152610bac8186610b36565b90508181036040830152610bc08185610b36565b9050610bcf6060830184610b6f565b95945050505050565b6000602082019050610bed6000830184610b6f565b92915050565b600080fd5b600080fd5b7f4e487b7100000000000000000000000000000000000000000000000000000000600052604160045260246000fd5b610c3582610b25565b810181811067ffffffffffffffff82111715610c5457610c53610bfd565b5b80604052505050565b6000610c676109a7565b9050610c738282610c2c565b919050565b600067ffffffffffffffff821115610c9357610c92610bfd565b5b610c9c82610b25565b9050602081019050919050565b82818337600083830152505050565b6000610ccb610cc684610c78565b610c5d565b905082815260208101848484011115610ce757610ce6610bf8565b5b610cf2848285610ca9565b509392505050565b600082601f830112610d0f57610d0e610bf3565b5b8135610d1f848260208601610cb8565b91505092915050565b600080600060608486031215610d4157610d406109b1565b5b600084013567ffffffffffffffff811115610d5f57610d5e6109b6565b5b610d6b86828701610cfa565b935050602084013567ffffffffffffffff811115610d8c57610d8b6109b6565b5b610d9886828701610cfa565b925050604084013567ffffffffffffffff811115610db957610db86109b6565b5b610dc586828701610cfa565b9150509250925092565b7f4e487b7100000000000000000000000000000000000000000000000000000000600052601160045260246000fd5b6000610e09826109bb565b9150610e14836109bb565b9250828201905080821115610e2c57610e2b610dcf565b5b92915050565b7f4e487b7100000000000000000000000000000000000000000000000000000000600052602260045260246000fd5b60006002820490506001821680610e7957607f821691505b602082108103610e8c57610e8b610e32565b5b50919050565b60006040820190508181036000830152610eac8185610b36565b90508181036020830152610ec08184610b36565b90509392505050565b600081905092915050565b6000610edf82610adf565b610ee98185610ec9565b9350610ef9818560208601610afb565b80840191505092915050565b6000610f118284610ed4565b915081905092915050565b6000610f27826109bb565b91507fffffffffffffffffffffffffffffffffffffffffffffffffffffffffffffffff8203610f5957610f58610dcf565b5b600182019050919050565b60008190508160005260206000209050919050565b60006020601f8301049050919050565b600082821b905092915050565b600060088302610fc67fffffffffffffffffffffffffffffffffffffffffffffffffffffffffffffffff82610f89565b610fd08683610f89565b95508019841693508086168417925050509392505050565b6000819050919050565b600061100d611008611003846109bb565b610fe8565b6109bb565b9050919050565b6000819050919050565b61102783610ff2565b61103b61103382611014565b848454610f96565b825550505050565b600090565b611050611043565b61105b81848461101e565b505050565b5b8181101561107f57611074600082611048565b600181019050611061565b5050565b601f8211156110c45761109581610f64565b61109e84610f79565b810160208510156110ad578190505b6110c16110b985610f79565b830182611060565b50505b505050565b600082821c905092915050565b60006110e7600019846008026110c9565b1980831691505092915050565b600061110083836110d6565b9150826002028217905092915050565b61111982610adf565b67ffffffffffffffff81111561113257611131610bfd565b5b61113c8254610e61565b611147828285611083565b600060209050601f83116001811461117a5760008415611168578287015190505b61117285826110f4565b8655506111da565b601f19841661118886610f64565b60005b828110156111b05784890151825560018201915060208501945060208101905061118b565b868310156111cd57848901516111c9601f8916826110d6565b8355505b6001600288020188555050505b505050505050565b600060608201905081810360008301526111fc8186610b36565b905081810360208301526112108185610b36565b905081810360408301526112248184610b36565b905094935050505056fea2646970667358221220b478d4e5075ca3c24d25b6dee3337bf14120714624ef52e7d6a4a2da764b0a9164736f6c63430008110033",
  "devdoc": {
    "kind": "dev",
    "methods": {},
    "version": 1
  },
  "userdoc": {
    "kind": "user",
    "methods": {},
    "version": 1
  },
  "storageLayout": {
    "storage": [
      {
        "astId": 16,
        "contract": "contracts/Election.sol:Election",
        "label": "numCandidates",
        "offset": 0,
        "slot": "0",
        "type": "t_uint256"
      },
      {
        "astId": 21,
        "contract": "contracts/Election.sol:Election",
        "label": "candidates",
        "offset": 0,
        "slot": "1",
        "type": "t_mapping(t_uint256,t_struct(Candidate)14_storage)"
      },
      {
        "astId": 25,
        "contract": "contracts/Election.sol:Election",
        "label": "hasVoted",
        "offset": 0,
        "slot": "2",
        "type": "t_mapping(t_address,t_bool)"
      }
    ],
    "types": {
      "t_address": {
        "encoding": "inplace",
        "label": "address",
        "numberOfBytes": "20"
      },
      "t_bool": {
        "encoding": "inplace",
        "label": "bool",
        "numberOfBytes": "1"
      },
      "t_mapping(t_address,t_bool)": {
        "encoding": "mapping",
        "key": "t_address",
        "label": "mapping(address => bool)",
        "numberOfBytes": "32",
        "value": "t_bool"
      },
      "t_mapping(t_uint256,t_struct(Candidate)14_storage)": {
        "encoding": "mapping",
        "key": "t_uint256",
        "label": "mapping(uint256 => struct Election.Candidate)",
        "numberOfBytes": "32",
        "value": "t_struct(Candidate)14_storage"
      },
      "t_string_storage": {
        "encoding": "bytes",
        "label": "string",
        "numberOfBytes": "32"
      },
      "t_struct(Candidate)14_storage": {
        "encoding": "inplace",
        "label": "struct Election.Candidate",
        "members": [
          {
            "astId": 7,
            "contract": "contracts/Election.sol:Election",
            "label": "name",
            "offset": 0,
            "slot": "0",
            "type": "t_string_storage"
          },
          {
            "astId": 9,
            "contract": "contracts/Election.sol:Election",
            "label": "party",
            "offset": 0,
            "slot": "1",
            "type": "t_string_storage"
          },
          {
            "astId": 11,
            "contract": "contracts/Election.sol:Election",
            "label": "state",
            "offset": 0,
            "slot": "2",
            "type": "t_string_storage"
          },
          {
            "astId": 13,
            "contract": "contracts/Election.sol:Election",
            "label": "votes",
            "offset": 0,
            "slot": "3",
            "type": "t_uint256"
          }
        ],
        "numberOfBytes": "128"
      },
      "t_uint256": {
        "encoding": "inplace",
        "label": "uint256",
        "numberOfBytes": "32"
      }
    }
  }
}