{
  "address": "0x5FbDB2315678afecb367f032d93F642f64180aa3",
  "abi": [
    {
      "inputs": [],
      "stateMutability": "nonpayable",
      "type": "constructor"
    },
    {
      "inputs": [],
      "name": "Election_CandidateDoesNotExist",
      "type": "error"
    },
    {
      "inputs": [],
      "name": "Election__AlreadyVoted",
      "type": "error"
    },
    {
      "inputs": [],
      "name": "Election__CandidateAlreadyExists",
      "type": "error"
    },
    {
      "anonymous": false,
      "inputs": [
        {
          "indexed": false,
          "internalType": "string",
          "name": "name",
          "type": "string"
        },
        {
          "indexed": false,
          "internalType": "string",
          "name": "party",
          "type": "string"
        },
        {
          "indexed": true,
          "internalType": "uint256",
          "name": "votes",
          "type": "uint256"
        },
        {
          "indexed": true,
          "internalType": "address",
          "name": "contractAddress",
          "type": "address"
        }
      ],
      "name": "CandidateAdded",
      "type": "event"
    },
    {
      "anonymous": false,
      "inputs": [
        {
          "indexed": false,
          "internalType": "string",
          "name": "candidateName",
          "type": "string"
        },
        {
          "indexed": false,
          "internalType": "string",
          "name": "candidateParty",
          "type": "string"
        },
        {
          "indexed": true,
          "internalType": "uint256",
          "name": "candidateVoteCount",
          "type": "uint256"
        }
      ],
      "name": "Voted",
      "type": "event"
    },
    {
      "inputs": [
        {
          "internalType": "string",
          "name": "_name",
          "type": "string"
        },
        {
          "internalType": "string",
          "name": "_party",
          "type": "string"
        }
      ],
      "name": "addCandidate",
      "outputs": [],
      "stateMutability": "nonpayable",
      "type": "function"
    },
    {
      "inputs": [
        {
          "internalType": "uint256",
          "name": "",
          "type": "uint256"
        }
      ],
      "name": "candidates",
      "outputs": [
        {
          "internalType": "string",
          "name": "name",
          "type": "string"
        },
        {
          "internalType": "string",
          "name": "party",
          "type": "string"
        },
        {
          "internalType": "uint256",
          "name": "votes",
          "type": "uint256"
        }
      ],
      "stateMutability": "view",
      "type": "function"
    },
    {
      "inputs": [
        {
          "internalType": "address",
          "name": "",
          "type": "address"
        }
      ],
      "name": "hasVoted",
      "outputs": [
        {
          "internalType": "bool",
          "name": "",
          "type": "bool"
        }
      ],
      "stateMutability": "view",
      "type": "function"
    },
    {
      "inputs": [],
      "name": "numCandidates",
      "outputs": [
        {
          "internalType": "uint256",
          "name": "",
          "type": "uint256"
        }
      ],
      "stateMutability": "view",
      "type": "function"
    },
    {
      "inputs": [
        {
          "internalType": "uint256",
          "name": "index",
          "type": "uint256"
        }
      ],
      "name": "vote",
      "outputs": [],
      "stateMutability": "nonpayable",
      "type": "function"
    }
  ],
  "transactionHash": "0x7d69ede3cecdd8be4cc921f0cb3970367e8a308fd5c61241e9e1ee9be9d10b9d",
  "args": [],
  "numDeployments": 1,
  "solcInputHash": "1b12eab718cd98f90a2632fcd8f8c552",
  "bytecode": "0x608060405234801561001057600080fd5b506110f2806100206000396000f3fe608060405234801561001057600080fd5b50600436106100575760003560e01c80630121b93f1461005c57806309eef43e1461007857806326541b56146100a85780633477ee2e146100c45780635216509a146100f6575b600080fd5b610076600480360381019061007191906108db565b610114565b005b610092600480360381019061008d9190610966565b610403565b60405161009f91906109ae565b60405180910390f35b6100c260048036038101906100bd9190610b0f565b610423565b005b6100de60048036038101906100d991906108db565b610751565b6040516100ed93929190610c15565b60405180910390f35b6100fe61088b565b60405161010b9190610c5a565b60405180910390f35b600260003373ffffffffffffffffffffffffffffffffffffffff1673ffffffffffffffffffffffffffffffffffffffff16815260200190815260200160002060009054906101000a900460ff166103ce5760016000546101749190610ca4565b8111156101ad576040517f1b11d1a100000000000000000000000000000000000000000000000000000000815260040160405180910390fd5b600180600083815260200190815260200160002060020160008282546101d39190610cd8565b925050819055506001600260003373ffffffffffffffffffffffffffffffffffffffff1673ffffffffffffffffffffffffffffffffffffffff16815260200190815260200160002060006101000a81548160ff02191690831515021790555060006001600083815260200190815260200160002060405180606001604052908160008201805461026290610d3b565b80601f016020809104026020016040519081016040528092919081815260200182805461028e90610d3b565b80156102db5780601f106102b0576101008083540402835291602001916102db565b820191906000526020600020905b8154815290600101906020018083116102be57829003601f168201915b505050505081526020016001820180546102f490610d3b565b80601f016020809104026020016040519081016040528092919081815260200182805461032090610d3b565b801561036d5780601f106103425761010080835404028352916020019161036d565b820191906000526020600020905b81548152906001019060200180831161035057829003601f168201915b50505050508152602001600282015481525050905080604001517f2610aa2b32505d0b372e2695cef7ff28b0127250b30a4dbbb05a86d2fb1e524e826000015183602001516040516103c0929190610d6c565b60405180910390a250610400565b6040517fb5fa7b7500000000000000000000000000000000000000000000000000000000815260040160405180910390fd5b50565b60026020528060005260406000206000915054906101000a900460ff1681565b60005b6000548110156106785760006001600083815260200190815260200160002060405180606001604052908160008201805461046090610d3b565b80601f016020809104026020016040519081016040528092919081815260200182805461048c90610d3b565b80156104d95780601f106104ae576101008083540402835291602001916104d9565b820191906000526020600020905b8154815290600101906020018083116104bc57829003601f168201915b505050505081526020016001820180546104f290610d3b565b80601f016020809104026020016040519081016040528092919081815260200182805461051e90610d3b565b801561056b5780601f106105405761010080835404028352916020019161056b565b820191906000526020600020905b81548152906001019060200180831161054e57829003601f168201915b505050505081526020016002820154815250509050836040516020016105919190610ddf565b6040516020818303038152906040528051906020012081600001516040516020016105bc9190610ddf565b60405160208183030381529060405280519060200120148061062d5750826040516020016105ea9190610ddf565b6040516020818303038152906040528051906020012081602001516040516020016106159190610ddf565b60405160208183030381529060405280519060200120145b15610664576040517fd7f7b22e00000000000000000000000000000000000000000000000000000000815260040160405180910390fd5b50808061067090610df6565b915050610426565b5060405180606001604052808381526020018281526020016000815250600160008054815260200190815260200160002060008201518160000190816106be9190610fea565b5060208201518160010190816106d49190610fea565b506040820151816002015590505060016000808282546106f49190610cd8565b925050819055503073ffffffffffffffffffffffffffffffffffffffff1660007ff49fc3daf909894cc0a03276fd782e6c61c3ebe9678374538183f43af2358e088484604051610745929190610d6c565b60405180910390a35050565b600160205280600052604060002060009150905080600001805461077490610d3b565b80601f01602080910402602001604051908101604052809291908181526020018280546107a090610d3b565b80156107ed5780601f106107c2576101008083540402835291602001916107ed565b820191906000526020600020905b8154815290600101906020018083116107d057829003601f168201915b50505050509080600101805461080290610d3b565b80601f016020809104026020016040519081016040528092919081815260200182805461082e90610d3b565b801561087b5780601f106108505761010080835404028352916020019161087b565b820191906000526020600020905b81548152906001019060200180831161085e57829003601f168201915b5050505050908060020154905083565b60005481565b6000604051905090565b600080fd5b600080fd5b6000819050919050565b6108b8816108a5565b81146108c357600080fd5b50565b6000813590506108d5816108af565b92915050565b6000602082840312156108f1576108f061089b565b5b60006108ff848285016108c6565b91505092915050565b600073ffffffffffffffffffffffffffffffffffffffff82169050919050565b600061093382610908565b9050919050565b61094381610928565b811461094e57600080fd5b50565b6000813590506109608161093a565b92915050565b60006020828403121561097c5761097b61089b565b5b600061098a84828501610951565b91505092915050565b60008115159050919050565b6109a881610993565b82525050565b60006020820190506109c3600083018461099f565b92915050565b600080fd5b600080fd5b6000601f19601f8301169050919050565b7f4e487b7100000000000000000000000000000000000000000000000000000000600052604160045260246000fd5b610a1c826109d3565b810181811067ffffffffffffffff82111715610a3b57610a3a6109e4565b5b80604052505050565b6000610a4e610891565b9050610a5a8282610a13565b919050565b600067ffffffffffffffff821115610a7a57610a796109e4565b5b610a83826109d3565b9050602081019050919050565b82818337600083830152505050565b6000610ab2610aad84610a5f565b610a44565b905082815260208101848484011115610ace57610acd6109ce565b5b610ad9848285610a90565b509392505050565b600082601f830112610af657610af56109c9565b5b8135610b06848260208601610a9f565b91505092915050565b60008060408385031215610b2657610b2561089b565b5b600083013567ffffffffffffffff811115610b4457610b436108a0565b5b610b5085828601610ae1565b925050602083013567ffffffffffffffff811115610b7157610b706108a0565b5b610b7d85828601610ae1565b9150509250929050565b600081519050919050565b600082825260208201905092915050565b60005b83811015610bc1578082015181840152602081019050610ba6565b60008484015250505050565b6000610bd882610b87565b610be28185610b92565b9350610bf2818560208601610ba3565b610bfb816109d3565b840191505092915050565b610c0f816108a5565b82525050565b60006060820190508181036000830152610c2f8186610bcd565b90508181036020830152610c438185610bcd565b9050610c526040830184610c06565b949350505050565b6000602082019050610c6f6000830184610c06565b92915050565b7f4e487b7100000000000000000000000000000000000000000000000000000000600052601160045260246000fd5b6000610caf826108a5565b9150610cba836108a5565b9250828203905081811115610cd257610cd1610c75565b5b92915050565b6000610ce3826108a5565b9150610cee836108a5565b9250828201905080821115610d0657610d05610c75565b5b92915050565b7f4e487b7100000000000000000000000000000000000000000000000000000000600052602260045260246000fd5b60006002820490506001821680610d5357607f821691505b602082108103610d6657610d65610d0c565b5b50919050565b60006040820190508181036000830152610d868185610bcd565b90508181036020830152610d9a8184610bcd565b90509392505050565b600081905092915050565b6000610db982610b87565b610dc38185610da3565b9350610dd3818560208601610ba3565b80840191505092915050565b6000610deb8284610dae565b915081905092915050565b6000610e01826108a5565b91507fffffffffffffffffffffffffffffffffffffffffffffffffffffffffffffffff8203610e3357610e32610c75565b5b600182019050919050565b60008190508160005260206000209050919050565b60006020601f8301049050919050565b600082821b905092915050565b600060088302610ea07fffffffffffffffffffffffffffffffffffffffffffffffffffffffffffffffff82610e63565b610eaa8683610e63565b95508019841693508086168417925050509392505050565b6000819050919050565b6000610ee7610ee2610edd846108a5565b610ec2565b6108a5565b9050919050565b6000819050919050565b610f0183610ecc565b610f15610f0d82610eee565b848454610e70565b825550505050565b600090565b610f2a610f1d565b610f35818484610ef8565b505050565b5b81811015610f5957610f4e600082610f22565b600181019050610f3b565b5050565b601f821115610f9e57610f6f81610e3e565b610f7884610e53565b81016020851015610f87578190505b610f9b610f9385610e53565b830182610f3a565b50505b505050565b600082821c905092915050565b6000610fc160001984600802610fa3565b1980831691505092915050565b6000610fda8383610fb0565b9150826002028217905092915050565b610ff382610b87565b67ffffffffffffffff81111561100c5761100b6109e4565b5b6110168254610d3b565b611021828285610f5d565b600060209050601f8311600181146110545760008415611042578287015190505b61104c8582610fce565b8655506110b4565b601f19841661106286610e3e565b60005b8281101561108a57848901518255600182019150602085019450602081019050611065565b868310156110a757848901516110a3601f891682610fb0565b8355505b6001600288020188555050505b50505050505056fea264697066735822122082e19be4dee98e1515e19b262e17f5f2d40a40612ee7c61847adb1395aa4dfef64736f6c63430008110033",
  "devdoc": {
    "kind": "dev",
    "methods": {},
    "version": 1
  },
  "userdoc": {
    "kind": "user",
    "methods": {},
    "version": 1
  },
  "storageLayout": {
    "storage": [
      {
        "astId": 16,
        "contract": "contracts/Election.sol:Election",
        "label": "numCandidates",
        "offset": 0,
        "slot": "0",
        "type": "t_uint256"
      },
      {
        "astId": 21,
        "contract": "contracts/Election.sol:Election",
        "label": "candidates",
        "offset": 0,
        "slot": "1",
        "type": "t_mapping(t_uint256,t_struct(Candidate)14_storage)"
      },
      {
        "astId": 25,
        "contract": "contracts/Election.sol:Election",
        "label": "hasVoted",
        "offset": 0,
        "slot": "2",
        "type": "t_mapping(t_address,t_bool)"
      }
    ],
    "types": {
      "t_address": {
        "encoding": "inplace",
        "label": "address",
        "numberOfBytes": "20"
      },
      "t_bool": {
        "encoding": "inplace",
        "label": "bool",
        "numberOfBytes": "1"
      },
      "t_mapping(t_address,t_bool)": {
        "encoding": "mapping",
        "key": "t_address",
        "label": "mapping(address => bool)",
        "numberOfBytes": "32",
        "value": "t_bool"
      },
      "t_mapping(t_uint256,t_struct(Candidate)14_storage)": {
        "encoding": "mapping",
        "key": "t_uint256",
        "label": "mapping(uint256 => struct Election.Candidate)",
        "numberOfBytes": "32",
        "value": "t_struct(Candidate)14_storage"
      },
      "t_string_storage": {
        "encoding": "bytes",
        "label": "string",
        "numberOfBytes": "32"
      },
      "t_struct(Candidate)14_storage": {
        "encoding": "inplace",
        "label": "struct Election.Candidate",
        "members": [
          {
            "astId": 9,
            "contract": "contracts/Election.sol:Election",
            "label": "name",
            "offset": 0,
            "slot": "0",
            "type": "t_string_storage"
          },
          {
            "astId": 11,
            "contract": "contracts/Election.sol:Election",
            "label": "party",
            "offset": 0,
            "slot": "1",
            "type": "t_string_storage"
          },
          {
            "astId": 13,
            "contract": "contracts/Election.sol:Election",
            "label": "votes",
            "offset": 0,
            "slot": "2",
            "type": "t_uint256"
          }
        ],
        "numberOfBytes": "96"
      },
      "t_uint256": {
        "encoding": "inplace",
        "label": "uint256",
        "numberOfBytes": "32"
      }
    }
  }
}